:10000000753000753100753500754000754100751B
:1000100042007543007544007545007546007547FC
:1000200000754800754900783079407E007F007186
:10003000A975A0FF758000E5A0540FB40FF671D527
:10004000E5A0540FB40F0280F571D5E5A0540FB4AC
:100050000F0280EA7580FEE5A0540FB40F21758071
:10006000FDE5A0540FB40F1C7580FBE5A0540FB440
:100070000F177580F7E5A0540FB40F1202003E90E1
:100080000500800F900504800A9005088005900502
:100090000C8000135003A380FAE493B42B0DBE012F
:1000A000030E71C8F535719C020034B42D0DBE01EC
:1000B000030E71C8F535719C020034B42A0DBE01DF
:1000C000030E71C8F535719C020034B42F0DBE01CA
:1000D000030E71C8F535719C020034B43D15BF01A3
:1000E0000D0FD2D478407941A7407600C2D4719CDC
:1000F000020131B44303020000BE000BF6243008B5
:100100000E719CE4020034BE010BF62430080E711F
:100110009CE4020034BF000BF72430090F719CE40B
:10012000020034BF0108F72430090F719CE402007B
:1001300034E535C3B42B317A00E5312541B40A00EA
:1001400050042430800324260AF545E53025402A52
:100150007A00B40A0050042430800324260AF544AF
:10016000EA2430F54302037DB42D02800302021914
:10017000E530B540005037C3E541B53100501BC3F1
:100180002410953124309406F545E54094019530CE
:100190002430F54475432D02037D95312430F54517
:1001A000E54095302430F54475432D02037DE5404C
:1001B000B530005037C3E531B54100501BC32410A2
:1001C000954124309406F545E5309401954024305E
:1001D000F54475433002037D95412430F545E53003
:1001E00095402430F54475433002037DE531B54137
:1001F000005012C3E54195312430F5457544307502
:10020000432D02037D95412430F545E5309540248A
:1002100030F54475433002037DC3B42A02800302E3
:1002200003447D00E531AA41B400057545308026C0
:10023000BA00057545308058FB74002BB40A0040A5
:10024000090D2406540FDAF38004540FDAED24303C
:10025000F5458D497D00E530AA41BA000CE531B481
:100260000003754900E5308016FB74002BB40A00CA
:1002700040090D2406540FDAF38004540FDAED25FB
:1002800049B40A0040050D2406540FF548EDF54722
:100290007D00E531AA40B40008E541B4000375488B
:1002A00000E531BA0023E541754230E542719CE535
:1002B000472430F543E541B4000675443002037D20
:1002C000E5482430F54402037DFB74002BB40A009A
:1002D00040090D2406540FDAF38005C3540FDAECFD
:1002E0002548B40A004009A9470989472406540F44
:1002F000C32430F5448D497D00E530AA40B40002A6
:10030000801CBA0002802FFB74002BB40A00400945
:100310000D2406540FDAF38005C3540FDAEC254997
:10032000B40A0040050D2406540F2547B40A0040C6
:10033000050D2406540F2430F543ED2430F54271A9
:100340009C02037DE530232323232531F532E5404C
:10035000232323232541F542F5F0E53284FA54F0B6
:10036000030303032430F544719CEA540FB40A00DC
:10037000400294062430F545719C020034E5437137
:100380009CE544719CE545719C020034020000F537
:1003900090C2B0C2B1D2B271D5C2B222F590D2B081
:1003A000C2B1D2B271D5C2B2227438718F71D57414
:1003B0000E718F71D57401718F71D57406718F7143
:1003C000D57480718F71D522D2D478307931A7302D
:0E03D0007600C2D4227C327D32DDFEDCFA22C1
:100500000708092F0405062A0102032D43003D2B8D
:00000001FF
